:100000000C9463000C948B000C948B000C948B006C
:100010000C948B000C948B000C948B000C948B0034
:100020000C948B000C948B000C948B000C948B0024
:100030000C948B000C948B000C948B000C948B0014
:100040000C94E2040C948B000C948B000C948B00A9
:100050000C948B000C948B000C948B000C948B00F4
:100060000C942C050C948B00000000002400270049
:100070002A0000000000250028002B0000000000DE
:1000800023002600290004040404040404040202DA
:100090000202020203030303030301020408102007
:1000A0004080010204081020010204081020000012
:1000B0000008000201000003040700000000000027
:1000C00000004706410A11241FBECFEFD8E0DEBF73
:1000D000CDBF23E0A2E1B2E001C01D92A334B2077C
:1000E000E1F712E0A0E0B1E0E6E0F9E102C005903E
:1000F0000D92A231B107D9F710E0C2E6D0E004C0FA
:100100002197FE010E947E0AC136D107C9F70E94DD
:10011000D2060C94760C0C94000096E0899FD001D6
:100120001124A254BD4F90967C936E935F9791E0FB
:1001300091969C939197E0912B03F0912C039091D1
:100140002A03992339F0309751F0811108C080912A
:10015000DA020994309719F05C968C91FACF0895E1
:10016000CF92DF92EF92FF920F931F9396E0899FB9
:10017000F0011124E254FD4F11A2278D30A121304E
:10018000310551F178F02230310509F451C02330A6
:10019000310509F452C01F910F91FF90EF90DF904D
:1001A000CF9008956623B9F361E070E00E948D005E
:1001B0002FB7F8948091A7029091A802A091A9026C
:1001C000B091AA022FBF8093160390931703A093B8
:1001D0001803B0931903DFCF9FB7F894C090A7021C
:1001E000D090A802E090A902F090AA029FBF0091CF
:1001F0001603109117032091180330911903C01AA8
:10020000D10AE20AF30A009128031091290330E091
:1002100020E00C151D052E053F0550F462E070E04E
:100220001F910F91FF90EF90DF90CF900C948D0075
:100230006111B1CF63E070E0F3CF70E060E0F0CF28
:100240000895AF92BF92CF92DF92EF92FF920F93F9
:100250001F93CF93DF936C017B018B01040F151F5C
:10026000EB015E01AE18BF08C017D10759F06991C4
:10027000D601ED91FC910190F081E02DC601099528
:10028000892B79F7C501DF91CF911F910F91FF90D5
:10029000EF90DF90CF90BF90AF900895833081F0C2
:1002A00028F4813099F08230A9F008958730A9F0C0
:1002B0008830C9F08430B1F4809180008F7D03C014
:1002C000809180008F7780938000089584B58F7728
:1002D00084BD089584B58F7DFBCF8091B0008F776A
:1002E0008093B00008958091B0008F7DF9CFCF93B7
:1002F000DF93282F30E0F901E255FF4F8491F90197
:10030000E656FF4FD491F901EA57FF4FC491CC2331
:10031000A1F081110E944E01EC2FF0E0EE0FFF1FC3
:10032000E458FF4FA591B491EC91ED2381E090E06A
:1003300009F480E0DF91CF91089580E090E0FACF5A
:10034000862F0C9477011F93CF93DF93282F30E0F3
:10035000F901E255FF4F8491F901E656FF4FD49120
:10036000F901EA57FF4FC491CC23A9F0162F811150
:100370000E944E01EC2FF0E0EE0FFF1FEE58FF4FF2
:10038000A591B4918FB7F894EC91111108C0D09554
:10039000DE23DC938FBFDF91CF911F910895DE2B79
:1003A000F8CF862F642F0C94A301CF93DF9390E0B6
:1003B000FC01E656FF4F24918A579F4FFC01849120
:1003C0008823C9F090E0880F991FFC01E859FF4F7E
:1003D000A591B491FC01EE58FF4FC591D4916111E4
:1003E0000DC09FB7F8948C91209582238C938881BF
:1003F000282328839FBFDF91CF910895623051F465
:100400009FB7F8943C91822F809583238C93E88149
:100410002E2BEFCF8FB7F894EC912E2B2C938FBF10
:10042000EACF862F642F0C94D5013FB7F8948091C2
:100430009C0290919D02A0919E02B0919F0226B5D0
:10044000A89B05C02F3F19F00196A11DB11D3FBF0C
:10045000BA2FA92F982F8827BC01CD01620F711DDB
:10046000811D911D42E0660F771F881F991F4A95D5
:10047000D1F708958F929F92AF92BF92CF92DF9261
:10048000EF92FF924B015C010E9415026B017C010F
:100490000E9415026C197D098E099F09683E734000
:1004A00081059105A8F321E0821A9108A108B108FD
:1004B00088EEC80E83E0D81EE11CF11C8114910463
:1004C000A104B10429F7FF90EF90DF90CF90BF9087
:1004D000AF909F908F90089585ED8093BC008091A0
:1004E000BC0084FDFCCF1092AD0208952091320231
:1004F000260F3327331F21323105ECF42091AD0252
:10050000FC0190E080E0243069F082E00895A09141
:1005100032022191AC014E5E5D4FA40FB52FB11D8B
:100520002C930196861798F380913202680F60939E
:10053000320280E0089581E00895089581E090E01E
:100540003091B1022091B002321710F490E080E0B7
:1005500091958195910908958091B1029091B00291
:10056000891730F48F5F8093B10290E080E00895A6
:100570008FEF9FEF08958091B0029091B102891B97
:10058000990B0895CF92DF92EF92FF920F931F93F2
:10059000CF93DF937C01CB018A0120917902222342
:1005A00089F0EB016B01C40ED51ECC15DD0569F099
:1005B0006991D701ED91FC910190F081E02DC70187
:1005C0000995F3CF642F0E947602C801DF91CF9185
:1005D0001F910F91FF90EF90DF90CF900895CF93F0
:1005E000DF931F92CDB7DEB7698320917902222372
:1005F000F9F02091AE02203258F021E030E0FC0109
:100600003383228390E080E00F90DF91CF910895B3
:100610008091AF02E82FF0E0E658FD4F998190837A
:100620008F5F8093AF028093AE0281E090E0ECCFC9
:1006300061E0CE0101960E947602F7CFCF93FC01D4
:10064000C48121E020937902C0939A021092AF02F4
:100650001092AE028385682B82EB92E00E94EF023B
:100660009091AE02913208F03FC08091AD028111AD
:10067000FCCF82E08093AD0281E08093AC028FEFEB
:10068000809378021092770290937602AAE7B2E004
:10069000E6E5F2E080E098132FC0109255028091B9
:1006A0005502CC0FC82BC09355028091AB0281300C
:1006B00039F51092AB02809155028093BB00809176
:1006C000BC0083FDF8CF85EC8093BC008091AD0227
:1006D0008230E1F3809178028F3F31F0809178028F
:1006E000803211F0809178021092AF021092AE0227
:1006F00010927902CF9108952D9121938F5FCBCFE6
:1007000085EEE2CF90E080E0089561E08AE00E940B
:10071000A30160E08BE00E94A30168EE73E080E03B
:1007200090E00C943A020F931F93CF938C01C62F45
:100730000E941E036C2F6460C8010E941E036C2F70
:100740006B7FC8010E941E0383EC90E00197F1F7D4
:10075000CF911F910F9108950F931F93CF93DF9324
:100760008C01D62FC42F607F642B0E94930380E1FD
:10077000D89FB00111246C2BC801DF91CF911F913C
:100780000F910C94930340E061E083E393E00E94B7
:10079000AC038BE39FE10197F1F70895CF93DF93CB
:1007A000CDB7DEB728970FB6F894DEBF0FBECDBF2A
:1007B00098E0E9E1F1E0DE01119601900D929A9541
:1007C000E1F790913B03961710F46FEF690F262F16
:1007D00030E0220F331F41E050E04C0F5D1F240F2B
:1007E000351FF9016081680F606840E083E393E0A2
:1007F00028960FB6F894DEBF0FBECDBFDF91CF9124
:100800000C94AC03CF93DF931092B1021092B0021C
:100810001092AF021092AE021092AD0281E080936E
:10082000AC021092AB0261E082E10E94A30161E0A0
:1008300083E10E94A3018091B9008E7F8093B9006B
:100840008091B9008D7F8093B90088E48093B800CF
:1008500085E48093BC001092380380913D03823080
:1008600018F098E09093380380933B0362E370E0C4
:1008700080E090E00E943A0260913E0383E393E0BF
:100880000E941E0368EE73E080E090E00E943A024E
:1008900060E383E393E00E949303CBE4D6E4CE01CC
:1008A0000197F1F760E383E393E00E9493032197BC
:1008B000F1F760E383E393E00E94930383E592E022
:1008C0000197F1F760E283E393E00E949303609164
:1008D0003803606240E083E393E00E94AC0384E06D
:1008E0008093390340E06CE083E393E00E94AC0323
:1008F0000E94C30382E080933A0340E066E083E312
:1009000093E00E94AC0340E062E083E393E00E9446
:10091000AC038BE39FE10197F1F7DF91CF9108954D
:1009200041E00E94AC0381E090E00895FC01019059
:100930000020E9F73197AF01481B590BBC0183E355
:1009400093E00C942101EF92FF920F931F93CF93AA
:10095000DF93EC017B018A0188819981009729F05E
:100960002A813B812417350788F4B8016F5F7F4FD8
:100970000E94A90B009791F0998388831B830A83B7
:100980002C813D81232B11F4FC0110821D830C83EB
:10099000B701888199810E946F0C0CC08881998170
:1009A000009711F00E94200B198218821D821C8270
:1009B0001B821A82CE01DF91CF911F910F91FF9080
:1009C000EF9008951F920F920FB60F9211242F935C
:1009D0003F938F939F93AF93BF938091A702909182
:1009E000A802A091A902B091AA0230919B0223E033
:1009F000230F2D3758F50196A11DB11D20939B02A1
:100A00008093A7029093A802A093A902B093AA0290
:100A100080919C0290919D02A0919E02B0919F02B4
:100A20000196A11DB11D80939C0290939D02A093FD
:100A30009E02B0939F02BF91AF919F918F913F9182
:100A40002F910F900FBE0F901F90189526E8230F3F
:100A50000296A11DB11DD2CF1F920F920FB60F9219
:100A600011242F933F934F935F936F937F938F93B3
:100A70009F93AF93BF93EF93FF938091B900887FCB
:100A8000803609F44AC0F0F5883209F4A5C018F59B
:100A9000803109F499C0B8F4882309F4F5C088308E
:100AA00009F492C0FF91EF91BF91AF919F918F9107
:100AB0007F916F915F914F913F912F910F900FBE5A
:100AC0000F901F901895883109F486C0803251F735
:100AD0008093780214C0803409F49BC040F48033C2
:100AE000B9F38833F9F68093780285ECAEC080358F
:100AF00009F483C0883509F494C0883499F60E94BB
:100B00006C02D0CF883909F48AC038F5883729F0CB
:100B100050F4883611F0803729F683E08093AD02D7
:100B20001092540255C0883809F479C0803919F000
:100B3000803809F0B7CF80915402803208F06FC03E
:100B4000E091540281E08E0F809354028091BB00AB
:100B5000F0E0EC5CFD4F80833BC0803B39F0D0F48B
:100B6000803A09F477C0883A09F09CCF84E08093FA
:100B7000AD021092330210923202F0E0E0E00995EB
:100B80008091320281110FC081E080933202109275
:100B9000120209C0803C09F4A8CF883C09F4A5CF13
:100BA000883B09F07FCFE091330281E08E0F809384
:100BB0003302F0E0EE5EFD4F80818093BB009091A8
:100BC00033028091320229C0809155028093BB008C
:100BD00085EC8093BC0066CF90917702809176027D
:100BE000981758F5E091770281E08E0F8093770295
:100BF000F0E0EA5AFD4F8081E9CFE091770281E091
:100C00008E0F809377028091BB00F0E0EA5AFD4F8F
:100C1000808390917702809176029817C8F285E8D8
:100C2000D8CFE091770281E08E0F80937702809198
:100C3000BB00F0E0EA5AFD4F80838091AC02811145
:100C40005ECF81E08093AB0284EA8093BC00109277
:100C5000AD0228CF85EC8093BC001092AD0280914C
:100C60005402803230F4E0915402F0E0EC5CFD4F2D
:100C700010826091540270E084E392E0F0E0E0E0E2
:100C80000995109254020ECF1092780238CF10922C
:100C9000B5021092B40288EE93E0A0E0B0E0809339
:100CA000B6029093B702A093B802B093B90285E25E
:100CB00091E09093B3028093B202109236031092A7
:100CC000350381E491E090933403809333038FE301
:100CD0008093370384E180933C0384E080933D0359
:100CE00010923E0310922E0310922D0310923003A7
:100CF00010922F03109232031092310344E050E01F
:100D000069E471E08DE293E00E94A3041092C002B6
:100D10001092C4021092C3021092C50287E391E0C0
:100D20009093BF028093BE02EAEDF2E0108214823B
:100D300013821582369683E0E631F807B9F783E02F
:100D400091E0909321038093200380E091E09093C1
:100D500023038093220384E08093240383E0809321
:100D6000250387E091E090931F0380931E038AE0A0
:100D700090E0909327038093260384EF91E0909373
:100D800029038093280310922C0310922B031092B6
:100D90001A0310921B0310921C0310921D03109251
:100DA0002A030895CF93DF93CDB7DEB764970FB6CC
:100DB000F894DEBF0FBECDBF789484B5826084BD49
:100DC00084B5816084BD85B5826085BD85B581604F
:100DD00085BD80916E00816080936E0010928100CD
:100DE0008091810082608093810080918100816088
:100DF0008093810080918000816080938000809149
:100E0000B10084608093B1008091B00081608093D4
:100E1000B00080917A00846080937A0080917A009B
:100E2000826080937A0080917A00816080937A005A
:100E300080917A00806880937A001092C10061E00E
:100E40008AE00E94D50161E08BE00E94D50161E05B
:100E50008CE00E94D5010E9402040E94020488E0F6
:100E600080933E0360E083E393E00E941E038EE4E0
:100E700091E00E94960461E080E00E94CE0383E648
:100E800091E00E94960462E080E00E94CE0388E731
:100E900091E00E94960463E080E00E94CE038DE81A
:100EA00091E00E94960468EB7BE080E090E00E9475
:100EB0003A020E94C3030E94850364E170E080E06F
:100EC00090E00E943A02412C512C320143944E0191
:100ED00023E1820E911C0E94C30382EA91E00E94EA
:100EE000960464E670E080E090E00E943A0231E00F
:100EF00030932A038FB7F8944091A7025091A8022B
:100F00006091A9027091AA028FBF80911A039091FB
:100F10001B03A0911C03B0911D03481B590B6A0BC6
:100F20007B0B8091260390912703B0E0A0E084170B
:100F30009507A607B70708F011C110E080912403B8
:100F4000181760F4E0912003F0912103E10FF11DE7
:100F500062E080810E94D5011F5FF0CF312C80912B
:100F60002503381608F063C0032D10E0E09122033A
:100F7000F0912303E00FF11F61E080810E94D50111
:100F8000E0912203F0912303E00FF11F60E08081E4
:100F90000E94A30173016201032C04C0CC0CDD1C70
:100FA000EE1CFF1C0A94D2F75601C094D094212C59
:100FB00080912403281620F5E22CF12CE0912003E7
:100FC000F0912103EE0DFF1D80810E947701F70152
:100FD0003496892B61F4EE0FFF1FE254FD4F8081A0
:100FE00091818A299B29918380832394E1CFEE0FFD
:100FF000FF1FE254FD4F808191818C219D21F3CF11
:10100000E0912203F0912303E00FF11F61E0808162
:101010000E94A3018091220390912303080F191FBE
:1010200060E0F80180810E94D501339498CF0EEBE7
:1010300012E0F801878D90A1892B31F4148E2FEFE7
:101040003FEF368F258F11A2369632E0EA3FF30745
:1010500089F7F12C80912403F81608F053C0E12C95
:10106000CF2CD12CCC0CDD1CC6018A539D4F6C01BA
:1010700020912503E21608F043C0F60160817181DA
:101080000E2C02C0769567950A94E2F7F29E9001C5
:1010900011242E0D311DEEEBF2E080E0458D568DD2
:1010A0002417350709F4EBC18F5F36968A30B1F704
:1010B00060FF24C0EEEBF2E090E080E0448D41114F
:1010C00018C0E0911E03F0911F03E20FF31F40814F
:1010D00056E0589FF001599FF00D1124E254FD4F46
:1010E000448F368F258F10A2178E61E00E94B000CA
:1010F00005C0019636968A30910501F7E394B8CF82
:10110000F394A8CF80E0F80191A19111892F0A5F93
:101110001F4FF2E00A3F1F07B1F79FB7F8944091C5
:10112000A7025091A8026091A9027091AA029FBFE4
:1011300040931A0350931B0360931C0370931D0389
:10114000882361F08091DF02882341F08091DD02E5
:101150009091DE02F090DA02019719F010922A03C2
:10116000F12C8E010F5F1F4F1801F80111821082C0
:10117000138212821582148250E040E06CE871E024
:10118000C8010E94A3040A5F1F4F0815190569F7DB
:10119000FF2009F495C00E94C30382EA91E00E94F7
:1011A00096040091A5021091A60262E0802F0E9491
:1011B000CE0341E06F2D83E393E00E94AC0364EF24
:1011C00071E080E090E00E943A02FAE2FF1619F026
:1011D00023E2F21289C01092A6021092A5020E9488
:1011E00085030E94C3038091A5029091A6020497F3
:1011F00009F066C08091A3029091A4021816190606
:101200000CF007C18091A1029091A20201969093E7
:10121000A2028093A1021092A4021092A302109243
:10122000A6021092A5020E94C30362E080E00E9421
:10123000CE0387EB91E00E94960468EE73E080E0B5
:1012400090E00E943A020E9485038091A102909151
:10125000A2020397A9F51092A2021092A1020E9485
:10126000C30361E080E00E94CE038BEE91E00E9418
:10127000960462E080E00E94CE0380E092E00E944B
:1012800096040AE010E061E08CE00E94A30168EEA1
:1012900073E080E090E00E943A0260E08CE00E94FF
:1012A000A30168EE73E080E090E00E943A020150F2
:1012B000110949F764EF71E080E090E00E943A0282
:1012C0008D859E850E94200B8F8198850E94200B22
:1012D00089819A810E94200B80E090E0892B09F49B
:1012E000FACD0E940000F7CD809131039091320336
:1012F0000817190738F4E0912D03F0912E03309769
:1013000009F04AC01092A002E0EAF2E020812F1119
:101310005CC0FB8A1C8AF40101900020E9F7319738
:101320008F0108191909B8016F5F7F4F90E080E0C5
:101330000E94A90B7C01009791F1FC011082B4017D
:101340000E946F0CC090A502D090A602F6E0FC9D12
:101350005001FD9DB00C1124A20CB31CF50180813D
:101360009181009709F1E114F104E1F022813381C8
:1013700020173107B8F0B7010E946F0CF5011583F3
:101380000483C7010E94200B3FEFC31AD30AD092F7
:10139000A602C092A50227CFE00FF11FB7CF10E041
:1013A00000E0D0CF0E94200B26E02C9DF0012D9D67
:1013B000F00D1124E20DF31DF182E082138302830C
:1013C00015830483F12CE12CDCCF0817190730F4C6
:1013D000E0912D03F0912E033097C1F41092A002FA
:1013E000E0EAF2E080818F1509F4FDCE8091A3023E
:1013F0009091A40201969093A4028093A3020F5FA0
:101400001F4F1093A6020093A502EDCEE00FF11F2F
:10141000E9CF892B09F019CF1092A6021092A502EC
:101420000E94C30361E080E00E94CE038CEC91E057
:101430000E94960462E085E00E94CE0380EE91E077
:101440000E94960460ED77E080E090E00E943A020E
:1014500060E08AE00E94A30161E08BE00E94A301AA
:1014600060ED77E080E090E00E943A0261E08AE07F
:101470000E94A30160E08BE00E94A301E6CE6170B0
:1014800035CE80912D0390912E030C94200B2F923A
:101490003F924F925F926F927F928F929F92AF9204
:1014A000BF92CF92DF92EF92FF920F931F93CF9351
:1014B000DF93CDB7DEB7CA1BDB0B0FB6F894DEBFE8
:1014C0000FBECDBF09942A88398848885F846E840E
:1014D0007D848C849B84AA84B984C884DF80EE8058
:1014E000FD800C811B81AA81B981CE0FD11D0FB661
:1014F000F894DEBF0FBECDBFED010895EE0FFF1FC4
:101500000590F491E02D09940F931F93CF93DF93EF
:101510008230910510F482E090E0E0914103F09177
:10152000420330E020E0B0E0A0E0309799F42115CC
:10153000310509F44AC0281B390B24303105D8F590
:101540008A819B816115710589F1FB0193838283F7
:10155000FE0111C040815181028113814817590752
:10156000E0F04817590799F4109761F012960C9320
:10157000129713961C933296CF01DF91CF911F9152
:101580000F9108950093410310934203F4CF211566
:10159000310551F04217530738F0A901DB019A01D8
:1015A000BD01DF01F801C1CFEF01F9CF90934203F4
:1015B00080934103CDCFFE01E20FF31F81939193FE
:1015C0002250310939832883D7CF20913F033091AE
:1015D0004003232B41F420911501309116013093E3
:1015E000400320933F0320911301309114012115F2
:1015F000310541F42DB73EB74091170150911801C4
:10160000241B350BE0913F03F0914003E217F307F1
:10161000A0F42E1B3F0B2817390778F0AC014E5F62
:101620005F4F2417350748F04E0F5F1F509340035C
:1016300040933F03819391939FCFF0E0E0E09CCFF4
:10164000CF93DF930097E9F0FC0132971382128267
:10165000A0914103B0914203ED0130E020E01097EA
:10166000A1F420813181820F931F20913F0330919B
:1016700040032817390709F061C0F0934003E09355
:101680003F03DF91CF910895EA01CE17DF07E8F518
:101690004A815B819E0141155105B1F7E901FB8348
:1016A000EA8349915991C40FD51FEC17FD0761F4E6
:1016B000808191810296840F951FE9019983888327
:1016C000828193819B838A83F0E0E0E012968D9182
:1016D0009C9113970097B9F52D913C911197CD01ED
:1016E0000296820F931F20913F03309140032817E9
:1016F000390739F6309751F51092420310924103A1
:10170000B0934003A0933F03BCCFD383C2834081F7
:101710005181840F951FC817D90761F44E5F5F4F41
:1017200088819981480F591F518340838A819B8109
:10173000938382832115310509F0B0CFF0934203E2
:10174000E09341039ECFFD01DC01C0CF13821282E2
:10175000D7CFB0E0A0E0EFEAFBE00C94490A8C019F
:10176000009751F4CB010E94840A8C01C801CDB7C7
:10177000DEB7E0E10C94650AFC01E60FF71F9C015F
:1017800022503109E217F30708F49DC0D901CD9129
:10179000DC911197C617D70798F0C530D10530F303
:1017A000CE0104978617970708F3C61BD70B22971D
:1017B000C193D1936D937C93CF010E94200BD6CF20
:1017C0005B01AC1ABD0A4C018C0E9D1EA091410319
:1017D000B0914203512C412CF12CE12C109731F5A2
:1017E00080913F03909140038815990509F05CC0F2
:1017F0004616570608F058C08091130190911401C5
:10180000009741F48DB79EB7409117015091180190
:10181000841B950BE817F90708F055C0F0934003B7
:10182000E0933F03F90171836083A0CF8D919C9178
:10183000119712966C90129713967C901397A81597
:10184000B90559F56C0142E0C40ED11CCA14DB0481
:1018500020F1AC014A195B09DA011296159780F064
:101860006282738251834083D9016D937C93E1142A
:10187000F10471F0D7011396FC93EE93129776CF93
:1018800022968C0F9D1FF90191838083F301EFCF86
:10189000F0934203E093410369CF4816590608F4D8
:1018A0002C017D01D3019ACFCB010E94840A7C01D7
:1018B000009749F0AE01B8010E94660CC8010E9471
:1018C000200B870153CF10E000E050CFFB01DC017B
:1018D00002C001900D9241505040D8F70895FB018D
:1018E000DC0101900D920020E1F7089510E0C2E6BE
:1018F000D0E004C0FE010E947E0A2196C336D107C3
:06190000C9F7F894FFCFC7
:1019060003040506070809313233343536373839CA
:101916002A302300004303800000004000140054D6
:101926000000000000EF02C20282039D02BB02AC6F
:10193600029E02000000001102D101A00100000079
:101946000090042101820320013636373900202019
:10195600202020347833204B657970616420202064
:101966002020002020204C6F636B696E672053791E
:101976007374656D20202000202020202020202048
:101986002042793A202020202020202000486F6D18
:10199600654D61646520456C656374726F6E69633D
:1019A600730020456E74657220556E6C6F636B20F4
:1019B600436F64653A20002020202057726F6E67BF
:1019C60020436F6465212020202020002020202035
:1019D600202057656C636F6D652120202020200034
:1019E60020446F6F72204F70656E002020202057B4
:1019F60041524E494E4720202121212120202000FE
:101A06002020204163636573732044656E696564B5
:021A16000000CE
:107E0000112484B714BE81FFF0D085E080938100F7
:107E100082E08093C00088E18093C10086E0809377
:107E2000C20080E18093C4008EE0C9D0259A86E02C
:107E300020E33CEF91E0309385002093840096BBD3
:107E4000B09BFECF1D9AA8958150A9F7CC24DD24C4
:107E500088248394B5E0AB2EA1E19A2EF3E0BF2EE7
:107E6000A2D0813461F49FD0082FAFD0023811F036
:107E7000013811F484E001C083E08DD089C08234E0
:107E800011F484E103C0853419F485E0A6D080C0E4
:107E9000853579F488D0E82EFF2485D0082F10E0AE
:107EA000102F00270E291F29000F111F8ED06801E7
:107EB0006FC0863521F484E090D080E0DECF843638
:107EC00009F040C070D06FD0082F6DD080E0C81688
:107ED00080E7D80618F4F601B7BEE895C0E0D1E017
:107EE00062D089930C17E1F7F0E0CF16F0E7DF06D8
:107EF00018F0F601B7BEE89568D007B600FCFDCFD4
:107F0000A601A0E0B1E02C9130E011968C91119780
:107F100090E0982F8827822B932B1296FA010C0160
:107F200087BEE89511244E5F5F4FF1E0A038BF0790
:107F300051F7F601A7BEE89507B600FCFDCF97BE46
:107F4000E89526C08437B1F42ED02DD0F82E2BD052
:107F50003CD0F601EF2C8F010F5F1F4F84911BD097
:107F6000EA94F801C1F70894C11CD11CFA94CF0C13
:107F7000D11C0EC0853739F428D08EE10CD085E9AC
:107F80000AD08FE07ACF813511F488E018D01DD067
:107F900080E101D065CF982F8091C00085FFFCCF94
:107FA0009093C60008958091C00087FFFCCF809118
:107FB000C00084FD01C0A8958091C6000895E0E648
:107FC000F0E098E1908380830895EDDF803219F02E
:107FD00088E0F5DFFFCF84E1DECF1F93182FE3DFCA
:107FE0001150E9F7F2DF1F91089580E0E8DFEE27F6
:047FF000FF270994CA
:027FFE00040479
:0400000300007E007B
:00000001FF
