:1000000063282C08A0002D08A1000130A200A30144
:1000100064002F20031C1C28A20B0828FF30A30714
:1000200003180828A007031CA107031C080032308E
:10003000A2000030A30008283A20A8010830A3003D
:100040003B202F200318A80AAB1EA801A20CA30B6B
:100050002028AB1AA2133B200314220808003608FC
:100060008400340884178004841300052B1B340695
:10007000FF3E080033172B081F39FF3EA1002A0856
:10008000F53E0318A10A331F4F283313A0000310B5
:10009000A10CA00C0310A10C200C4F28A101E83EDC
:1000A000A000A109FC30031C5828A00703185528FC
:1000B000A0076400A10F552820185E28A01C622804
:1000C000000062280800FF23831690008312831625
:1000D0009F018312073099008316850183128501E1
:1000E0000530B6000830B4005430AA00AB01B83077
:1000F000AC000B30AD000120031C7028243C031D14
:100100007B280120031C7028B80064003808013CDB
:10011000031D8D2801308500072964003808023C42
:10012000031D952802308500072964003808033C28
:10013000031D9D2803308500072964003808053C0D
:10014000031DA52804308500072964003808063CF3
:10015000031DAD2805308500072964003808073CD9
:10016000031DB52806308500072964003808093CBE
:10017000031DBD28073085000729640038080A3CA4
:10018000031DC528103085000729640038080B3C82
:10019000031DCD28163085000729640038080E3C61
:1001A000031DD528123085000729640038080D3C4E
:1001B000031DDD28133085000729640038080F3C33
:1001C000031DE52814308500072964003808043C25
:1001D000031DED2815308500072964003808083C08
:1001E000031DF528163085000729640038080C3CEB
:1001F000031DFD2817308500072964003808103CCE
:10020000031D0529203085000729851270288516D1
:06021000702863000929BB
:02400E00843FED
:00000001FF
