:1000000063282C08A0002D08A1000130A200A30144
:1000100064002F20031C1C28A20B0828FF30A30714
:1000200003180828A007031CA107031C080032308E
:10003000A2000030A30008283A20A8010830A3003D
:100040003B202F200318A80AAB1EA801A20CA30B6B
:100050002028AB1AA2133B200314220808003608FC
:100060008400340884178004841300052B1B340695
:10007000FF3E080033172B081F39FF3EA1002A0856
:10008000F53E0318A10A331F4F283313A0000310B5
:10009000A10CA00C0310A10C200C4F28A101E83EDC
:1000A000A000A109FC30031C5828A00703185528FC
:1000B000A0076400A10F552820185E28A01C622804
:1000C000000062280800FF23831690008312073087
:1000D000990083168501831285010530B60008302A
:1000E000B4005430AA00AB01B830AC000B30AD0006
:1000F0000120031C6D28243C031D78280120031CCB
:100100006D28B80064003808013C031D8A280130BE
:100110008500042964003808023C031D922802303F
:100120008500042964003808033C031D9A28033025
:100130008500042964003808053C031DA22804300A
:100140008500042964003808063C031DAA280530F0
:100150008500042964003808073C031DB2280630D6
:100160008500042964003808093C031DBA280730BB
:1001700085000429640038080A3C031DC228103099
:1001800085000429640038080B3C031DCA2816307A
:1001900085000429640038080E3C031DD228123063
:1001A00085000429640038080D3C031DDA2813304B
:1001B00085000429640038080F3C031DE228143030
:1001C0008500042964003808043C031DEA28153022
:1001D0008500042964003808083C031DF228163005
:1001E00085000429640038080C3C031DFA281730E8
:1001F0008500042964003808103C031D02292030C2
:100200008500042985126D2885166D28630006294E
:02400E00843FED
:00000001FF
